{
  "contractName": "FlutterLotery",
  "abi": [
    {
      "inputs": [],
      "payable": false,
      "stateMutability": "nonpayable",
      "type": "constructor"
    },
    {
      "anonymous": false,
      "inputs": [
        {
          "indexed": false,
          "internalType": "uint256",
          "name": "newBalance",
          "type": "uint256"
        }
      ],
      "name": "BalanceChangedEvent",
      "type": "event"
    },
    {
      "anonymous": false,
      "inputs": [],
      "name": "EndedEvent",
      "type": "event"
    },
    {
      "anonymous": false,
      "inputs": [],
      "name": "NewMemberEvent",
      "type": "event"
    },
    {
      "anonymous": false,
      "inputs": [],
      "name": "StartedEvent",
      "type": "event"
    },
    {
      "constant": true,
      "inputs": [
        {
          "internalType": "address",
          "name": "",
          "type": "address"
        }
      ],
      "name": "balances",
      "outputs": [
        {
          "internalType": "uint256",
          "name": "",
          "type": "uint256"
        }
      ],
      "payable": false,
      "stateMutability": "view",
      "type": "function"
    },
    {
      "constant": true,
      "inputs": [],
      "name": "started",
      "outputs": [
        {
          "internalType": "bool",
          "name": "",
          "type": "bool"
        }
      ],
      "payable": false,
      "stateMutability": "view",
      "type": "function"
    },
    {
      "constant": true,
      "inputs": [],
      "name": "totalMoney",
      "outputs": [
        {
          "internalType": "uint256",
          "name": "",
          "type": "uint256"
        }
      ],
      "payable": false,
      "stateMutability": "view",
      "type": "function"
    },
    {
      "constant": true,
      "inputs": [],
      "name": "usersCount",
      "outputs": [
        {
          "internalType": "int256",
          "name": "",
          "type": "int256"
        }
      ],
      "payable": false,
      "stateMutability": "view",
      "type": "function"
    },
    {
      "constant": false,
      "inputs": [],
      "name": "deposit",
      "outputs": [],
      "payable": true,
      "stateMutability": "payable",
      "type": "function"
    },
    {
      "constant": true,
      "inputs": [],
      "name": "getLoteryBalance",
      "outputs": [
        {
          "internalType": "uint256",
          "name": "",
          "type": "uint256"
        }
      ],
      "payable": false,
      "stateMutability": "view",
      "type": "function"
    },
    {
      "constant": false,
      "inputs": [],
      "name": "getDepositValue",
      "outputs": [
        {
          "internalType": "uint256",
          "name": "",
          "type": "uint256"
        }
      ],
      "payable": false,
      "stateMutability": "nonpayable",
      "type": "function"
    }
  ],
  "bytecode": "0x608060405234801561001057600080fd5b5060008060006101000a81548160ff0219169083151502179055506000600181905550600060028190555061042b8061004a6000396000f3fe6080604052600436106100705760003560e01c806387da21e31161004e57806387da21e3146101345780638a9a53d81461015f57806398d073561461018a578063d0e30db0146101b557610070565b80631f2698ab1461007557806327e235e3146100a45780636ba13a8214610109575b600080fd5b34801561008157600080fd5b5061008a6101bf565b604051808215151515815260200191505060405180910390f35b3480156100b057600080fd5b506100f3600480360360208110156100c757600080fd5b81019080803573ffffffffffffffffffffffffffffffffffffffff1690602001909291905050506101d1565b6040518082815260200191505060405180910390f35b34801561011557600080fd5b5061011e6101e9565b6040518082815260200191505060405180910390f35b34801561014057600080fd5b506101496101ef565b6040518082815260200191505060405180910390f35b34801561016b57600080fd5b506101746101f5565b6040518082815260200191505060405180910390f35b34801561019657600080fd5b5061019f6101fd565b6040518082815260200191505060405180910390f35b6101bd610244565b005b6000809054906101000a900460ff1681565b60036020528060005260406000206000915090505481565b60015481565b60025481565b600047905090565b6000600360003373ffffffffffffffffffffffffffffffffffffffff1673ffffffffffffffffffffffffffffffffffffffff16815260200190815260200160002054905090565b60003411610251576103b4565b6000600360003373ffffffffffffffffffffffffffffffffffffffff1673ffffffffffffffffffffffffffffffffffffffff1681526020019081526020016000205414156102b7576000809054906101000a900460ff16156102b6576102b56103b6565b5b5b34600360003373ffffffffffffffffffffffffffffffffffffffff1673ffffffffffffffffffffffffffffffffffffffff16815260200190815260200160002060008282540192505081905550346002600082825401925050819055507f0365d77f31de617895759fb8a9b426a41743bcc59ccf65238ec2afe5be22004c6002546040518082815260200191505060405180910390a16000809054906101000a900460ff166103b35760016000806101000a81548160ff0219169083151502179055507ff3e7bcca0424af59c216f2df31002a65ecef602b8ecd96fad8accdb3f1e128a260405160405180910390a16103ae6103b6565b6103b4565b5b565b6001600081548092919060010191905055507f6b2c6d378faf502599bf6e6580b5d27038397c049590bc5ecc1a7c584edab71760405160405180910390a156fea265627a7a72315820bddda51b485db808317ac88045299e36a21a5907fc967dc3d729fbd1cabf761c64736f6c63430005100032",
  "source": "pragma solidity >=0.4.22 <0.9.0;\r\n\r\ncontract FlutterLotery {\r\n\r\n    // -----------------------\r\n    bool public started;\r\n    int public usersCount;\r\n    uint public totalMoney;\r\n\r\n    // -----------------------\r\n    // Все, кто вложил средства в лотерею\r\n    mapping(address => uint) public balances;\r\n\r\n\r\n    // -----------------------\r\n    event StartedEvent();\r\n    event EndedEvent();\r\n    event BalanceChangedEvent(uint newBalance);\r\n    event NewMemberEvent();\r\n\r\n    constructor() public {\r\n        started = false;\r\n        usersCount = 0;\r\n        totalMoney = 0;\r\n    }\r\n\r\n    //Положить на депозит эфир\r\n    function deposit() public payable {\r\n\r\n        // TODO Потом тут нужно выставить минимум\r\n        if (msg.value <= 0) {\r\n            return;\r\n        }\r\n\r\n        if (balances[msg.sender] == 0) {\r\n            if (started) {\r\n                addNewMember();\r\n            }\r\n        }\r\n\r\n        balances[msg.sender] += msg.value;\r\n        totalMoney += msg.value;\r\n        emit BalanceChangedEvent(totalMoney);\r\n\r\n        if (!started) {\r\n            started = true;\r\n            emit StartedEvent();\r\n            addNewMember();\r\n            return;\r\n        }\r\n\r\n    }\r\n\r\n    // Получить текущий баланс лотереи\r\n    function getLoteryBalance() public view returns (uint) {\r\n        return address(this).balance;\r\n    }\r\n\r\n    // Узнать, сколько средств на счету\r\n    function getDepositValue() public returns (uint) {\r\n        return balances[msg.sender];\r\n    }\r\n\r\n    // -------------------\r\n    function addNewMember() private {\r\n        usersCount++;\r\n        emit NewMemberEvent();\r\n    }\r\n\r\n    // Запущена ли лотерея\r\n    //bool public started;\r\n    // Есть ли банк\r\n    //bool private hasBankAddr;\r\n\r\n    // Сколько участников\r\n    //int public usersCount;\r\n    // Сколько денег в банке\r\n    //int private totalMoney;\r\n\r\n    //event MessageSended(address sender, int256 value);\r\n    //event TestEvent(uint value);\r\n\r\n    //mapping(address => uint) public balances;\r\n\r\n\r\n    // Модель участника\r\n    //struct LoteryUser {\r\n    //    string userName;\r\n    //    int payment;\r\n    //    address addr;\r\n    //}\r\n\r\n    // Адрес банка, где хранятся средства\r\n    //address private bankAddress;\r\n\r\n    //event Deposit(address sender, uint amount);\r\n    //event Withdrawal(address receiver, uint amount);\r\n\r\n//    constructor() public {\r\n//        started = false;\r\n//        usersCount = 0;\r\n//        hasBankAddr = false;\r\n//        totalMoney = 0;\r\n//    }\r\n\r\n    /// Изменить адрес банка средств. Стоит подумать, как защититься от того, что любой може тсделать себя банком\r\n//    function setBankAddress(address bankAddr) public { // memory - копирует объект и он будет уничтожен после выхода из ф-ии?\r\n//        bankAddress = bankAddr;\r\n//        hasBankAddr = true;\r\n//    }\r\n\r\n    // Отправить эфир по адресу _to. Отправляет вызывающий функцию\r\n//    function testSender(address _to) public payable {\r\n\r\n        //int256 val = msg.value;\r\n\r\n        //(bool sent, bytes memory data) = _to.call{value: msg.value}(\"\");\r\n//        (bool success, ) = _to.call.value(msg.value)(\"\");\r\n//        //emit TestEvent(100);\r\n//        require(success, \"Failed to send Ether\");\r\n//        //emit MessageSended(msg.sender, msg.value);\r\n//        emit MessageSended(msg.sender, 254);\r\n//    }\r\n\r\n//    function getBalance() public view returns (uint) {\r\n//        return address(this).balance;\r\n//    }\r\n\r\n    // Положить на депозит эфир\r\n//    function deposit() public payable {\r\n//        emit Deposit(msg.sender, msg.value);\r\n//        balances[msg.sender] += msg.value;\r\n//    }\r\n\r\n    // Снять с депозита эфир\r\n//    function withdraw(uint amount) public {\r\n//        require(balances[msg.sender] >= amount, \"Insufficient funds\");\r\n//        emit Withdrawal(msg.sender, amount);\r\n//        balances[msg.sender] -= amount;\r\n//        // Главная функция отправляющая эфир обратно\r\n//        msg.sender.transfer(amount);\r\n//    }\r\n\r\n}\r\n",
  "sourcePath": "D:\\flutter_projects\\trandry_wallet\\contracts\\lotery.sol",
  "compiler": {
    "name": "solc",
    "version": "0.5.16+commit.9c3226ce.Emscripten.clang"
  },
  "schemaVersion": "3.4.5",
  "updatedAt": "2022-03-14T11:24:29.466Z",
  "networkType": "ethereum",
  "devdoc": {
    "methods": {}
  },
  "userdoc": {
    "methods": {}
  }
}